{
  "contracts/Calculator.sol": {
    "Calculator": {
      "abi": [
        {
          "inputs": [
            {
              "internalType": "uint256",
              "name": "num",
              "type": "uint256"
            }
          ],
          "name": "add",
          "outputs": [],
          "stateMutability": "nonpayable",
          "type": "function"
        },
        {
          "inputs": [],
          "name": "get",
          "outputs": [
            {
              "internalType": "uint256",
              "name": "",
              "type": "uint256"
            }
          ],
          "stateMutability": "view",
          "type": "function"
        },
        {
          "inputs": [
            {
              "internalType": "uint256",
              "name": "num",
              "type": "uint256"
            }
          ],
          "name": "multiply",
          "outputs": [],
          "stateMutability": "nonpayable",
          "type": "function"
        },
        {
          "inputs": [],
          "name": "result",
          "outputs": [
            {
              "internalType": "uint256",
              "name": "",
              "type": "uint256"
            }
          ],
          "stateMutability": "view",
          "type": "function"
        },
        {
          "inputs": [
            {
              "internalType": "uint256",
              "name": "num",
              "type": "uint256"
            }
          ],
          "name": "substract",
          "outputs": [],
          "stateMutability": "nonpayable",
          "type": "function"
        }
      ],
      "evm": {
        "bytecode": {
          "linkReferences": {},
          "object": "6080604052348015600f57600080fd5b506102ed8061001f6000396000f3fe608060405234801561001057600080fd5b50600436106100575760003560e01c80631003e2d21461005c5780636537214714610078578063693af854146100965780636d4ce63c146100b2578063c6888fa1146100d0575b600080fd5b61007660048036038101906100719190610187565b6100ec565b005b610080610107565b60405161008d91906101c3565b60405180910390f35b6100b060048036038101906100ab9190610187565b61010d565b005b6100ba610128565b6040516100c791906101c3565b60405180910390f35b6100ea60048036038101906100e59190610187565b610131565b005b806000808282546100fd919061020d565b9250508190555050565b60005481565b8060008082825461011e9190610241565b9250508190555050565b60008054905090565b806000808282546101429190610275565b9250508190555050565b600080fd5b6000819050919050565b61016481610151565b811461016f57600080fd5b50565b6000813590506101818161015b565b92915050565b60006020828403121561019d5761019c61014c565b5b60006101ab84828501610172565b91505092915050565b6101bd81610151565b82525050565b60006020820190506101d860008301846101b4565b92915050565b7f4e487b7100000000000000000000000000000000000000000000000000000000600052601160045260246000fd5b600061021882610151565b915061022383610151565b925082820190508082111561023b5761023a6101de565b5b92915050565b600061024c82610151565b915061025783610151565b925082820390508181111561026f5761026e6101de565b5b92915050565b600061028082610151565b915061028b83610151565b925082820261029981610151565b915082820484148315176102b0576102af6101de565b5b509291505056fea26469706673582212204b7143c3fd5c542ff50544b80bf4100820e6d3bcaee0864d6faf118cc1f4403c64736f6c634300081c0033",
          "opcodes": "PUSH1 0x80 PUSH1 0x40 MSTORE CALLVALUE DUP1 ISZERO PUSH1 0xF JUMPI PUSH1 0x0 DUP1 REVERT JUMPDEST POP PUSH2 0x2ED DUP1 PUSH2 0x1F PUSH1 0x0 CODECOPY PUSH1 0x0 RETURN INVALID PUSH1 0x80 PUSH1 0x40 MSTORE CALLVALUE DUP1 ISZERO PUSH2 0x10 JUMPI PUSH1 0x0 DUP1 REVERT JUMPDEST POP PUSH1 0x4 CALLDATASIZE LT PUSH2 0x57 JUMPI PUSH1 0x0 CALLDATALOAD PUSH1 0xE0 SHR DUP1 PUSH4 0x1003E2D2 EQ PUSH2 0x5C JUMPI DUP1 PUSH4 0x65372147 EQ PUSH2 0x78 JUMPI DUP1 PUSH4 0x693AF854 EQ PUSH2 0x96 JUMPI DUP1 PUSH4 0x6D4CE63C EQ PUSH2 0xB2 JUMPI DUP1 PUSH4 0xC6888FA1 EQ PUSH2 0xD0 JUMPI JUMPDEST PUSH1 0x0 DUP1 REVERT JUMPDEST PUSH2 0x76 PUSH1 0x4 DUP1 CALLDATASIZE SUB DUP2 ADD SWAP1 PUSH2 0x71 SWAP2 SWAP1 PUSH2 0x187 JUMP JUMPDEST PUSH2 0xEC JUMP JUMPDEST STOP JUMPDEST PUSH2 0x80 PUSH2 0x107 JUMP JUMPDEST PUSH1 0x40 MLOAD PUSH2 0x8D SWAP2 SWAP1 PUSH2 0x1C3 JUMP JUMPDEST PUSH1 0x40 MLOAD DUP1 SWAP2 SUB SWAP1 RETURN JUMPDEST PUSH2 0xB0 PUSH1 0x4 DUP1 CALLDATASIZE SUB DUP2 ADD SWAP1 PUSH2 0xAB SWAP2 SWAP1 PUSH2 0x187 JUMP JUMPDEST PUSH2 0x10D JUMP JUMPDEST STOP JUMPDEST PUSH2 0xBA PUSH2 0x128 JUMP JUMPDEST PUSH1 0x40 MLOAD PUSH2 0xC7 SWAP2 SWAP1 PUSH2 0x1C3 JUMP JUMPDEST PUSH1 0x40 MLOAD DUP1 SWAP2 SUB SWAP1 RETURN JUMPDEST PUSH2 0xEA PUSH1 0x4 DUP1 CALLDATASIZE SUB DUP2 ADD SWAP1 PUSH2 0xE5 SWAP2 SWAP1 PUSH2 0x187 JUMP JUMPDEST PUSH2 0x131 JUMP JUMPDEST STOP JUMPDEST DUP1 PUSH1 0x0 DUP1 DUP3 DUP3 SLOAD PUSH2 0xFD SWAP2 SWAP1 PUSH2 0x20D JUMP JUMPDEST SWAP3 POP POP DUP2 SWAP1 SSTORE POP POP JUMP JUMPDEST PUSH1 0x0 SLOAD DUP2 JUMP JUMPDEST DUP1 PUSH1 0x0 DUP1 DUP3 DUP3 SLOAD PUSH2 0x11E SWAP2 SWAP1 PUSH2 0x241 JUMP JUMPDEST SWAP3 POP POP DUP2 SWAP1 SSTORE POP POP JUMP JUMPDEST PUSH1 0x0 DUP1 SLOAD SWAP1 POP SWAP1 JUMP JUMPDEST DUP1 PUSH1 0x0 DUP1 DUP3 DUP3 SLOAD PUSH2 0x142 SWAP2 SWAP1 PUSH2 0x275 JUMP JUMPDEST SWAP3 POP POP DUP2 SWAP1 SSTORE POP POP JUMP JUMPDEST PUSH1 0x0 DUP1 REVERT JUMPDEST PUSH1 0x0 DUP2 SWAP1 POP SWAP2 SWAP1 POP JUMP JUMPDEST PUSH2 0x164 DUP2 PUSH2 0x151 JUMP JUMPDEST DUP2 EQ PUSH2 0x16F JUMPI PUSH1 0x0 DUP1 REVERT JUMPDEST POP JUMP JUMPDEST PUSH1 0x0 DUP2 CALLDATALOAD SWAP1 POP PUSH2 0x181 DUP2 PUSH2 0x15B JUMP JUMPDEST SWAP3 SWAP2 POP POP JUMP JUMPDEST PUSH1 0x0 PUSH1 0x20 DUP3 DUP5 SUB SLT ISZERO PUSH2 0x19D JUMPI PUSH2 0x19C PUSH2 0x14C JUMP JUMPDEST JUMPDEST PUSH1 0x0 PUSH2 0x1AB DUP5 DUP3 DUP6 ADD PUSH2 0x172 JUMP JUMPDEST SWAP2 POP POP SWAP3 SWAP2 POP POP JUMP JUMPDEST PUSH2 0x1BD DUP2 PUSH2 0x151 JUMP JUMPDEST DUP3 MSTORE POP POP JUMP JUMPDEST PUSH1 0x0 PUSH1 0x20 DUP3 ADD SWAP1 POP PUSH2 0x1D8 PUSH1 0x0 DUP4 ADD DUP5 PUSH2 0x1B4 JUMP JUMPDEST SWAP3 SWAP2 POP POP JUMP JUMPDEST PUSH32 0x4E487B7100000000000000000000000000000000000000000000000000000000 PUSH1 0x0 MSTORE PUSH1 0x11 PUSH1 0x4 MSTORE PUSH1 0x24 PUSH1 0x0 REVERT JUMPDEST PUSH1 0x0 PUSH2 0x218 DUP3 PUSH2 0x151 JUMP JUMPDEST SWAP2 POP PUSH2 0x223 DUP4 PUSH2 0x151 JUMP JUMPDEST SWAP3 POP DUP3 DUP3 ADD SWAP1 POP DUP1 DUP3 GT ISZERO PUSH2 0x23B JUMPI PUSH2 0x23A PUSH2 0x1DE JUMP JUMPDEST JUMPDEST SWAP3 SWAP2 POP POP JUMP JUMPDEST PUSH1 0x0 PUSH2 0x24C DUP3 PUSH2 0x151 JUMP JUMPDEST SWAP2 POP PUSH2 0x257 DUP4 PUSH2 0x151 JUMP JUMPDEST SWAP3 POP DUP3 DUP3 SUB SWAP1 POP DUP2 DUP2 GT ISZERO PUSH2 0x26F JUMPI PUSH2 0x26E PUSH2 0x1DE JUMP JUMPDEST JUMPDEST SWAP3 SWAP2 POP POP JUMP JUMPDEST PUSH1 0x0 PUSH2 0x280 DUP3 PUSH2 0x151 JUMP JUMPDEST SWAP2 POP PUSH2 0x28B DUP4 PUSH2 0x151 JUMP JUMPDEST SWAP3 POP DUP3 DUP3 MUL PUSH2 0x299 DUP2 PUSH2 0x151 JUMP JUMPDEST SWAP2 POP DUP3 DUP3 DIV DUP5 EQ DUP4 ISZERO OR PUSH2 0x2B0 JUMPI PUSH2 0x2AF PUSH2 0x1DE JUMP JUMPDEST JUMPDEST POP SWAP3 SWAP2 POP POP JUMP INVALID LOG2 PUSH5 0x6970667358 0x22 SLT KECCAK256 0x4B PUSH18 0x43C3FD5C542FF50544B80BF4100820E6D3BC 0xAE 0xE0 DUP7 0x4D PUSH16 0xAF118CC1F4403C64736F6C634300081C STOP CALLER "
        },
        "methodIdentifiers": {
          "add(uint256)": "1003e2d2",
          "get()": "6d4ce63c",
          "multiply(uint256)": "c6888fa1",
          "result()": "65372147",
          "substract(uint256)": "693af854"
        }
      }
    }
  }
}