{
  "_format": "hh-sol-artifact-1",
  "contractName": "Calculator",
  "sourceName": "contracts/Calculator.sol",
  "abi": [
    {
      "inputs": [
        {
          "internalType": "uint256",
          "name": "num",
          "type": "uint256"
        }
      ],
      "name": "add",
      "outputs": [],
      "stateMutability": "nonpayable",
      "type": "function"
    },
    {
      "inputs": [],
      "name": "get",
      "outputs": [
        {
          "internalType": "uint256",
          "name": "",
          "type": "uint256"
        }
      ],
      "stateMutability": "view",
      "type": "function"
    },
    {
      "inputs": [
        {
          "internalType": "uint256",
          "name": "num",
          "type": "uint256"
        }
      ],
      "name": "multiply",
      "outputs": [],
      "stateMutability": "nonpayable",
      "type": "function"
    },
    {
      "inputs": [],
      "name": "result",
      "outputs": [
        {
          "internalType": "uint256",
          "name": "",
          "type": "uint256"
        }
      ],
      "stateMutability": "view",
      "type": "function"
    },
    {
      "inputs": [
        {
          "internalType": "uint256",
          "name": "num",
          "type": "uint256"
        }
      ],
      "name": "substract",
      "outputs": [],
      "stateMutability": "nonpayable",
      "type": "function"
    }
  ],
  "bytecode": "0x6080604052348015600f57600080fd5b506102ed8061001f6000396000f3fe608060405234801561001057600080fd5b50600436106100575760003560e01c80631003e2d21461005c5780636537214714610078578063693af854146100965780636d4ce63c146100b2578063c6888fa1146100d0575b600080fd5b61007660048036038101906100719190610187565b6100ec565b005b610080610107565b60405161008d91906101c3565b60405180910390f35b6100b060048036038101906100ab9190610187565b61010d565b005b6100ba610128565b6040516100c791906101c3565b60405180910390f35b6100ea60048036038101906100e59190610187565b610131565b005b806000808282546100fd919061020d565b9250508190555050565b60005481565b8060008082825461011e9190610241565b9250508190555050565b60008054905090565b806000808282546101429190610275565b9250508190555050565b600080fd5b6000819050919050565b61016481610151565b811461016f57600080fd5b50565b6000813590506101818161015b565b92915050565b60006020828403121561019d5761019c61014c565b5b60006101ab84828501610172565b91505092915050565b6101bd81610151565b82525050565b60006020820190506101d860008301846101b4565b92915050565b7f4e487b7100000000000000000000000000000000000000000000000000000000600052601160045260246000fd5b600061021882610151565b915061022383610151565b925082820190508082111561023b5761023a6101de565b5b92915050565b600061024c82610151565b915061025783610151565b925082820390508181111561026f5761026e6101de565b5b92915050565b600061028082610151565b915061028b83610151565b925082820261029981610151565b915082820484148315176102b0576102af6101de565b5b509291505056fea26469706673582212204b7143c3fd5c542ff50544b80bf4100820e6d3bcaee0864d6faf118cc1f4403c64736f6c634300081c0033",
  "linkReferences": {},
  "deployedLinkReferences": {}
}